:020000040800F2
:100000000028002099120008E5100008EB100008F5
:10001000F1100008F7100008FD10000800000000B3
:1000200000000000000000000000000003110008B4
:100030000F110008000000001B1100082711000824
:10004000E1120008E1120008E1120008E1120008C4
:10005000E1120008E1120008E1120008E1120008B4
:10006000E1120008E1120008E1120008E1120008A4
:10007000E1120008E1120008E1120008E112000894
:10008000E1120008E1120008E1120008E112000884
:10009000E1120008E1120008E1120008E112000874
:1000A000E1120008E1120008E1120008E112000864
:1000B00035110008E112000800000000E1120008FC
:1000C000E11200080000000000000000E11200083A
:1000D00000000000E1120008E1120008000000002A
:1000E000E1120008E1120008E1120008000000001F
:1000F0000000000000000000000000000000000000
:0C01000000000000000000005FF808F1A3
:10010C0010B5054C237833B9044B13B10448AFF345
:10011C0000800123237010BD40000020000000006F
:10012C003829000808B5034B1BB103490348AFF34A
:10013C00008008BD000000004400002038290008A1
:10014C0080B500AF174B1B68174A1360174B1B6821
:10015C00144A13604FF40061154801F0A7FB0346E5
:10016C001A46124B1A60104B1A680E4B1B689A42B7
:10017C0016D10C4B1A680D4B1B689A4210D10D4BC3
:10018C001A680A4B1B689A420AD0084B1B68094A2A
:10019C001360064B1B68002B02D1074B01221A601F
:1001AC0000BF80BD040000200000002008000020DB
:1001BC00000801400C0000205C00002080B500AF5E
:1001CC00174B1B68174A1360174B1B68144A1360B4
:1001DC004FF48051154801F069FB03461A46124B47
:1001EC001A60104B1A680E4B1B689A4216D10C4BB6
:1001FC001A680D4B1B689A4210D10D4B1A680A4BAA
:10020C001B689A420AD0084B1B68094A1360064BBC
:10021C001B68002B02D1074B01221A6000BF80BD66
:10022C0014000020100000201800002000080140DD
:10023C001C0000206000002080B500AF174B1B682D
:10024C00174A1360174B1B68144A13604FF4005184
:10025C00154801F02BFB03461A46124B1A60104B43
:10026C001A680E4B1B689A4216D10C4B1A680D4B30
:10027C001B689A4210D10D4B1A680A4B1B689A42A4
:10028C000AD0084B1B68094A1360064B1B68002BED
:10029C0002D1074B01221A6000BF80BD2400002050
:1002AC002000002028000020000801402C00002025
:1002BC006400002080B58AB000AF01F00DF800F0AA
:1002CC00B3FA00F039FB00F0EBFA4C4801F06EFF8A
:1002DC004FF4FA737B604FF47A727B6892FBF3F302
:1002EC007B6205233B620323FB610223BB61012379
:1002FC007B6102233B613B6AFB60FB69BB60FB6873
:10030C003F4A82FB03129210DB17D31A3D4A13604B
:10031C00F9683B4B83FB01239A10CB17D21A134677
:10032C009B0013445B00CA1A364B5A60BB68344AB4
:10033C0082FB03129210DB17D31A324A9360B9680E
:10034C002F4B83FB01239A10CB17D21A13469B0019
:10035C0013445B00CA1A2B4BDA60002220212A4876
:10036C0001F0BBFA01224021274801F0B6FA012224
:10037C008021254801F0B1FA01224FF48071224806
:10038C0001F0ABFA01224FF400711F4801F0A5FAFD
:10039C0000224FF480611C4801F09FFA642000F0A9
:1003AC0009FF786800F0D0FE4FF4FA7000F038FFC7
:1003BC00164B1B68012B31D100F0E8FD144B1B6868
:1003CC00013B032B26D801A252F823F0E9030008C5
:1003DC00F1030008F9030008010400080C4B022289
:1003EC001A6018E00A4B03221A6014E0084B04222E
:1003FC001A6010E0064B02221A600CE090000020FC
:10040C006766666668000020000801405C000020FA
:10041C003000002000BF994B00221A60984B1B68DB
:10042C00012B38D1974B01221A6001237B610223E7
:10043C003B613B6AFB60FB69BB6000222021924858
:10044C0001F04BFA012240218F4801F046FA0122BB
:10045C0080218D4801F041FA01224FF480718A48C5
:10046C0001F03BFA01224FF40071874801F035FA94
:10047C0000224FF48061844801F02FFA642000F0D0
:10048C0099FE786800F060FE4FF4FA7000F0C8FE38
:10049C007B4B00221A607B4B1B68012B40F0FC80CD
:1004AC00FB687A4A82FB03129210DB17D31A784A44
:1004BC001360F968754B83FB01239A10CB17D21A82
:1004CC0013469B0013445B00CA1A714B5A60BB68FD
:1004DC006E4A82FB03129210DB17D31A6C4A93609C
:1004EC00B9686A4B83FB01239A10CB17D21A1346B7
:1004FC009B0013445B00CA1A654BDA6000F06CFC7D
:10050C00644B1B68012B17D17B6A002B11DD7B6AB6
:10051C00013B7B627B6A002B0BD1FB68013BFB60D0
:10052C00BB68013BBB604FF47A727B6892FBF3F3C0
:10053C007B62786800F008FEFB68002B15D17B69A4
:10054C00012B12D1012220214F4801F0C6F90122C2
:10055C0040214D4801F0C1F9002280214A4801F0A8
:10056C00BCF9FB69FB6002237B61FB68002B15D196
:10057C007B69022B12D101222021434801F0ADF9F5
:10058C0000224021404801F0A8F9012280213E4878
:10059C0001F0A3F9BB69FB6003237B61FB68002BB3
:1005AC0015D17B69032B12D100222021364801F092
:1005BC0094F901224021344801F08FF90122802165
:1005CC00314801F08AF93B6AFB6001237B61BB680F
:1005DC00002B18D13B69012B15D101224FF48071EE
:1005EC00294801F07AF901224FF40071264801F0F4
:1005FC0074F900224FF48061234801F06EF9FB6915
:10060C00BB6002233B61BB68002B18D13B69022BFA
:10061C0015D101224FF480711B4801F05EF90022C4
:10062C004FF40071184801F058F901224FF4806121
:10063C00154801F052F9BB69BB6003233B61BB68F1
:10064C00002B7FF4B5AE3B69032B7FF4B1AE0022D7
:10065C004FF480710C4801F040F901224FF4007105
:10066C00094801F03AF901224FF48061064801F083
:10067C0034F93B6ABB6001233B6199E65C000020C6
:10068C0064000020300000200008014067666666A8
:10069C00680000207C0000205E4B1B68022B3AD1C6
:1006AC003B6A5D4A82FB03129210DB17D31A5B4A3A
:1006BC001360396A584B83FB01239A10CB17D21A5B
:1006CC0013469B0013445B00CA1A544B5A60534B9D
:1006DC0000229A604F4B1B68504AD36000F07CFBA1
:1006EC004F4B1B68012B05D100F078FC4FF4FA70CE
:1006FC0000F096FD4B4B1B68012B7FF459AE3B6A07
:10070C0001333B623B6A642B01D105233B62454BB1
:10071C0000221A604CE63F4B1B68032B3AD1BB6995
:10072C003D4A82FB03129210DB17D31A3B4A13602B
:10073C00B969394B83FB01239A10CB17D21A134694
:10074C009B0013445B00CA1A344B5A60334B002293
:10075C009A60304B1B68314AD36000F03DFB304B44
:10076C001B68012B05D100F039FC4FF4FA7000F036
:10077C0057FD2C4B1B68012B7FF41AAEBB69013360
:10078C00BB61BB69642B01D10223BB61254B0022E9
:10079C001A600DE61F4B1B68042B7FF409AEFB6936
:1007AC001D4A82FB03129210DB17D31A1B4A1360EB
:1007BC00F969194B83FB01239A10CB17D21A1346F4
:1007CC009B0013445B00CA1A144B5A60134B002253
:1007DC009A60104B1B68114AD36000F0FDFA104B65
:1007EC001B68012B05D100F0F9FB4FF4FA7000F0F7
:1007FC0017FD0C4B1B68012B7FF4DAADFB69013341
:10080C00FB61FB69642B01D10323FB61054B0022C7
:10081C001A60CDE53000002067666666680000202F
:10082C00D80000206000002080B590B000AF07F128
:10083C00180328220021184602F070F83B1D0022F4
:10084C001A605A609A60DA601A610223BB61012354
:10085C00BB621023FB6200237B6307F1180318466D
:10086C0001F06CF80346002B01D000F0D9FB0F23EC
:10087C007B600023BB600023FB6000233B610023F3
:10088C007B613B1D0021184601F0D8FA0346002B72
:10089C0001D000F0C5FB00BF4037BD4680BD000055
:1008AC0080B586B000AF07F1080300221A605A60C9
:1008BC009A60DA603B4600221A605A601D4B4FF07A
:1008CC0080421A601B4B41F63F725A60194B002252
:1008DC009A60184B0922DA60164B00221A61154BEC
:1008EC0000229A61134801F011FC0346002B01D041
:1008FC0000F096FB4FF48053BB6007F108031946D8
:10090C000C4801F0A7FD0346002B01D000F088FB3A
:10091C0000233B6000237B603B461946054801F0F1
:10092C006FFF0346002B01D000F07AFB00BF183795
:10093C00BD4680BD9000002080B586B000AF07F1A9
:10094C00080300221A605A609A60DA60284B9B698F
:10095C00274A43F004039361254B9B6903F004037E
:10096C007B607B68224B9B69214A43F008039361AF
:10097C001F4B9B6903F008033B603B68002240F26D
:10098C00FE711C4800F0A9FF00227F211A4800F0DC
:10099C00A4FF40F2FE73BB600123FB6000233B61AC
:1009AC0002237B6107F108031946124800F004FE8C
:1009BC007F23BB600123FB6000233B6102237B612F
:1009CC0007F1080319460C4800F0F6FD4FF460538C
:1009DC00BB600023FB6001233B6107F10803194650
:1009EC00044800F0E9FD00BF1837BD4680BD00BFCC
:1009FC000010024000080140000C014080B582B09C
:100A0C0000AF786000F0BCFB00F0F0FB00F024FCC1
:100A1C00FFF796FBFFF7D2FBFFF70EFC00BF083782
:100A2C00BD4680BD80B584B000AFF860B96011469A
:100A3C001A460B46FB801346BB80FB68092B00F261
:100A4C00C58101A252F823F07D0A0008D30A0008E0
:100A5C00290B00087F0B0008D50B00082B0C000895
:100A6C00810C0008D70C00082D0D0008830D000820
:100A7C00FB8800221946B86800F02FFFBB880022C3
:100A8C001946B86800F029FF3B8B00221946B8685C
:100A9C0000F023FFBB8B00221946B86800F01DFF45
:100AAC003B8C00221946B86800F017FFBB8C002263
:100ABC001946B86800F011FF3B8D01221946B86841
:100ACC0000F00BFF83E1FB8801221946B86800F0A7
:100ADC0004FFBB8800221946B86800F0FEFE3B8B71
:100AEC0000221946B86800F0F8FEBB8B01221946AB
:100AFC00B86800F0F2FE3B8C01221946B86800F091
:100B0C00ECFEBB8C01221946B86800F0E6FE3B8D6A
:100B1C0001221946B86800F0E0FE58E1FB8800227B
:100B2C001946B86800F0D9FEBB8800221946B8688F
:100B3C0000F0D3FE3B8B01221946B86800F0CDFEC5
:100B4C00BB8B00221946B86800F0C7FE3B8C002214
:100B5C001946B86800F0C1FEBB8C01221946B86872
:100B6C0000F0BBFE3B8D00221946B86800F0B5FEC4
:100B7C002DE1FB8800221946B86800F0AEFEBB8858
:100B8C0000221946B86800F0A8FE3B8B00221946DB
:100B9C00B86800F0A2FEBB8B00221946B86800F0C2
:100BAC009CFE3B8C01221946B86800F096FEBB8C6B
:100BBC0001221946B86800F090FE3B8D00221946C0
:100BCC00B86800F08AFE02E1FB8801221946B86879
:100BDC0000F083FEBB8800221946B86800F07DFE49
:100BEC003B8B00221946B86800F077FEBB8B0122C4
:100BFC001946B86800F071FE3B8C01221946B868A2
:100C0C0000F06BFEBB8C00221946B86800F065FE44
:100C1C003B8D00221946B86800F05FFED7E0FB88D8
:100C2C0000221946B86800F058FEBB88012219460C
:100C3C00B86800F052FE3B8B00221946B86800F0F1
:100C4C004CFEBB8B00221946B86800F046FE3B8C6C
:100C5C0001221946B86800F040FEBB8C00221946F0
:100C6C00B86800F03AFE3B8D00221946B86800F0D7
:100C7C0034FEACE0FB8800221946B86800F02DFE6B
:100C8C00BB8801221946B86800F027FE3B8B002276
:100C9C001946B86800F021FEBB8B00221946B868D3
:100CAC0000F01BFE3B8C00221946B86800F015FEC4
:100CBC00BB8C00221946B86800F00FFE3B8D002259
:100CCC001946B86800F009FE81E0FB88002219463D
:100CDC00B86800F002FEBB8800221946B86800F024
:100CEC00FCFD3B8B00221946B86800F0F6FDBB8B6F
:100CFC0001221946B86800F0F0FD3B8C0122194620
:100D0C00B86800F0EAFDBB8C01221946B86800F007
:100D1C00E4FD3B8D01221946B86800F0DEFD56E07B
:100D2C00FB8800221946B86800F0D7FDBB8800226A
:100D3C001946B86800F0D1FD3B8B00221946B86803
:100D4C0000F0CBFDBB8B00221946B86800F0C5FD46
:100D5C003B8C00221946B86800F0BFFDBB8C00220A
:100D6C001946B86800F0B9FD3B8D00221946B868E9
:100D7C0000F0B3FD2BE0FB8800221946B86800F0A8
:100D8C00ACFDBB8800221946B86800F0A6FD3B8B71
:100D9C0000221946B86800F0A0FDBB8B0022194652
:100DAC00B86800F09AFD3B8C01221946B86800F037
:100DBC0094FDBB8C00221946B86800F08EFD3B8D6B
:100DCC0000221946B86800F088FD00E000BF00BFA3
:100DDC001037BD4680BD00BF80B586B006AF664BF0
:100DEC001B68012B40F0C480644B1B68032B00F282
:100DFC00BB8001A252F823F0150E00086D0E0008FE
:100E0C00C50E00081D0F0008002202215C4800F0EE
:100E1C0064FD012204215A4800F05FFD01220821E3
:100E2C00574800F05AFD01221021554800F055FD9D
:100E3C00524B1B68534A52F823004023049320233F
:100E4C00039310230293082301930423009302239A
:100E5C0001224D49FFF7E6FD484B01221A6084E060
:100E6C0001220221464800F038FD002204214448AA
:100E7C0000F033FD01220821414800F02EFD012233
:100E8C0010213F4800F029FD3C4B1B683D4A52F8AD
:100E9C00230040230493202303931023029308235D
:100EAC00019304230093022301223749FFF7BAFD73
:100EBC00324B02221A6058E001220221304800F025
:100ECC000CFD012204212E4800F007FD0022082110
:100EDC002B4800F002FD01221021294800F0FDFCF6
:100EEC00264B1B68274A52F82300402304932023E7
:100EFC0003931023029308230193042300930223EA
:100F0C0001222149FFF78EFD1C4B03221A602CE0B5
:100F1C00012202211A4800F0E0FC012204211848A9
:100F2C0000F0DBFC01220821154800F0D6FC002261
:100F3C001021134800F0D1FC104B1B68114A52F8D9
:100F4C0023004023049320230393102302930823AC
:100F5C00019304230093022301220B49FFF762FD46
:100F6C00064B00221A6000E000BF642000F022F95A
:100F7C0000BFBD4680BD00BF84000020780000206B
:100F8C000008014068000020000C014080B500AF53
:100F9C0001222021104800F0A0FC012240210E4823
:100FAC0000F09BFC012280210B4800F096FC0122F2
:100FBC004FF48071084800F090FC01224FF400714E
:100FCC00054800F08AFC01224FF48061024800F0D1
:100FDC0084FC00BF80BD00BF0008014080B500AF9D
:100FEC0020210E4800F091FC4FF480710B4800F06A
:100FFC008CFC8021094800F088FC4FF48061074884
:10100C0000F083FC4021054800F07FFC4FF4007198
:10101C00024800F07AFC00BF80BD00BF0008014010
:10102C0080B400AF72B600BFFEE7000080B485B09C
:10103C0000AF154B9B69144A43F001039361124BAB
:10104C009B6903F00103BB60BB680F4BDB690E4A65
:10105C0043F08053D3610C4BDB6903F080537B600E
:10106C007B680A4B5B68FB60FB6823F0E063FB600A
:10107C00FB6843F08063FB60044AFB68536000BF6D
:10108C001437BD4680BC7047001002400000014080
:10109C0080B584B000AF78607B681B68B3F1804F7B
:1010AC0013D10C4BDB690B4A43F00103D361094BA1
:1010BC00DB6903F00103FB60FB68002200211C20AC
:1010CC0000F043FA1C2000F05CFA00BF1037BD465C
:1010DC0080BD00BF0010024080B400AFFEE780B4BA
:1010EC0000AFFEE780B400AFFEE780B400AFFEE7D0
:1010FC0080B400AFFEE780B400AF00BFBD4680BC3B
:10110C00704780B400AF00BFBD4680BC704780B450
:10111C0000AF00BFBD4680BC704780B500AF00F08B
:10112C0021F900BF80BD000080B500AF024801F07E
:10113C0089F800BF80BD00BF9000002080B400AFD4
:10114C0000BFBD4680BC704780B483B000AF7860F0
:10115C007B68084A82FB03129210DB17D31A064AEB
:10116C001360064B00221A6000BF0C37BD4680BCD2
:10117C00704700BF67666666800000207C00002018
:10118C0080B400AF094B1B68002B0BDD074B1B68B1
:10119C00013B064A1360054B1B68002B02D1044B24
:1011AC0001221A6000BFBD4680BC70478000002041
:1011BC007C00002080B483B000AF78607B68084A64
:1011CC0082FB03129210DB17D31A064A1360064BEC
:1011DC0000221A6000BF0C37BD4680BC704700BFB0
:1011EC0067666666880000208400002080B400AF2B
:1011FC00094B1B68002B0BDD074B1B68013B064A98
:10120C001360054B1B68002B02D1044B01221A60A2
:10121C0000BFBD4680BC70478800002084000020C1
:10122C0080B483B000AF78607B68084A82FB0312FD
:10123C009210DB17D31A064A1360064B00221A6071
:10124C0000BF0C37BD4680BC704700BF6766666642
:10125C008C000020D800002080B400AF094B1B6824
:10126C00002B0BDD074B1B68013B064A1360054B3B
:10127C001B68002B02D1044B01221A6000BFBD4633
:10128C0080BC70478C000020D80000200C480D4911
:10129C000D4A002302E0D458C4500433C4188C42C5
:1012AC00F9D30A4A0A4C002301E013600432A2422B
:1012BC00FBD3FFF743FF01F00DFBFEF7FBFF70477D
:1012CC000000002040000020782900084000002089
:1012DC00E0000020FEE7000080B500AF084B1B6863
:1012EC00074A43F010031360032000F023F90F208A
:1012FC0000F008F8FFF79AFE0023184680BD00BFE7
:10130C000020024080B582B000AF7860124B1A68A2
:10131C00124B1B7819464FF47A73B3FBF1F3B2FB03
:10132C00F3F3184600F03BF90346002B01D00123E0
:10133C000EE07B680F2B0AD8002279684FF0FF3043
:10134C0000F003F9064A7B681360002300E00123D8
:10135C0018460837BD4680BD340000203C000020F4
:10136C003800002080B400AF054B1B781A46054BA3
:10137C001B681344034A136000BFBD4680BC704712
:10138C003C000020DC00002080B400AF024B1B6846
:10139C001846BD4680BC7047DC00002080B485B088
:1013AC0000AF78607B6803F00703FB600C4BDB68D5
:1013BC00BB60BA684FF6FF031340BB60FB681A02B0
:1013CC00BB68134343F0BF6343F40033BB60044A70
:1013DC00BB68D36000BF1437BD4680BC704700BFEC
:1013EC0000ED00E080B400AF044BDB681B0A03F097
:1013FC0007031846BD4680BC704700BF00ED00E0F7
:10140C0080B483B000AF0346FB7197F90730002B13
:10141C000BDBFB7903F01F02064997F907305B09D8
:10142C00012000FA02F241F8232000BF0C37BD4620
:10143C0080BC704700E100E080B483B000AF03468D
:10144C003960FB7197F90730002B0ADB3B68DAB285
:10145C000C4997F907301201D2B20B4483F80023E0
:10146C000AE03B68DAB20849FB7903F00F03043B4E
:10147C001201D2B20B441A7600BF0C37BD4680BCA9
:10148C00704700BF00E100E000ED00E080B489B0DF
:10149C0000AFF860B9607A60FB6803F00703FB618A
:1014AC00FB69C3F10703042B28BF0423BB61FB6951
:1014BC000433062B02D9FB69033B00E000237B615C
:1014CC004FF0FF32BB6902FA03F3DA43BB681A40F0
:1014DC007B699A404FF0FF317B6901FA03F3D943E2
:1014EC007B680B40134318462437BD4680BC7047BD
:1014FC0080B582B000AF78607B68013BB3F1807F30
:10150C0001D301230FE00A4A7B68013B53600F2192
:10151C004FF0FF30FFF790FF054B00229A60044B11
:10152C0007221A60002318460837BD4680BD00BF4D
:10153C0010E000E080B582B000AF78607868FFF70B
:10154C002DFF00BF0837BD4680BD80B586B000AF0B
:10155C000346B9607A60FB7300237B61FFF742FF9F
:10156C0078617A68B9687869FFF790FF024697F955
:10157C000F3011461846FFF75FFF00BF1837BD4606
:10158C0080BD80B582B000AF0346FB7197F9073080
:10159C001846FFF735FF00BF0837BD4680BD80B544
:1015AC0082B000AF78607868FFF7A2FF0346184658
:1015BC000837BD4680BD000080B48BB000AF7860AA
:1015CC00396000237B6200233B6248E101227B6A85
:1015DC0002FA03F3FB613B681B68FA691340BB61B9
:1015EC00BA69FB699A4240F037813B685B68A34A51
:1015FC0093425ED0A14A934275D8A14A934258D0E7
:10160C009F4A93426FD89F4A934252D09D4A93422D
:10161C0069D89D4A93424CD09B4A934263D89B4ACB
:10162C00934246D0994A93425DD8122B2AD8122B5A
:10163C0059D801A252F823F0BF16000899160008D9
:10164C00AB160008ED160008F3160008F316000898
:10165C00F3160008F3160008F3160008F31600083A
:10166C00F3160008F3160008F3160008F31600082A
:10167C00F3160008F3160008F3160008A11600086C
:10168C00B5160008824A934213D02CE03B68DB6805
:10169C003B6229E03B68DB6804333B6224E03B6837
:1016AC00DB6808333B621FE03B68DB680C333B6252
:1016BC001AE03B689B68002B02D104233B6213E0C9
:1016CC003B689B68012B05D108233B627B68FA6958
:1016DC001A6109E008233B627B68FA695A6103E0EE
:1016EC0000233B6200E000BFBB69FF2B01D87B6885
:1016FC0001E07B6804337B61BB69FF2B02D87B6AFA
:10170C009B0002E07B6A083B9B003B617B691A688B
:10171C000F213B6901FA03F3DB431A40396A3B6939
:10172C0001FA03F31A437B691A603B685B6803F0A8
:10173C008053002B00F09080564B9B69554A43F028
:10174C0001039361534B9B6903F00103BB60BB68BE
:10175C00514A7B6A9B08023352F82330FB607B6A48
:10176C0003F003039B000F2202FA03F3DB43FA6836
:10177C001340FB607B68494A93420DD07B68484A12
:10178C00934207D07B68474A934201D1022304E07D
:10179C00032302E0012300E000237A6A02F0030233
:1017AC0092009340FA681343FB603B497B6A9B08A9
:1017BC000233FA6841F823203B685B6803F48033FA
:1017CC00002B06D0384B1A683749BB6913430B60A2
:1017DC0006E0354B1A68BB69DB43334913400B6099
:1017EC003B685B6803F40033002B06D02E4B5A6821
:1017FC002D49BB6913434B6006E02B4B5A68BB6900
:10180C00DB43294913404B603B685B6803F480134E
:10181C00002B06D0244B9A682349BB6913438B6079
:10182C0006E0214B9A68BB69DB431F4913408B6070
:10183C003B685B6803F40013002B06D01A4BDA6884
:10184C001949BB691343CB6006E0174BDA68BB69D7
:10185C00DB4315491340CB607B6A01337B623B68E9
:10186C001A687B6A22FA03F3002B7FF4AFAE00BF39
:10187C0000BF2C37BD4680BC704700BF0000321043
:10188C000000311000002210000021100000121086
:10189C00000011100010024000000140000801403F
:1018AC00000C0140001001400004014080B485B0E0
:1018BC0000AF78600B467B807B689A687B8813400E
:1018CC00002B02D00123FB7301E00023FB73FB7B95
:1018DC0018461437BD4680BC704780B483B000AF47
:1018EC0078600B467B8013467B707B78002B03D093
:1018FC007A887B681A6103E07B881A047B681A611A
:10190C0000BF0C37BD4680BC704780B485B000AFBB
:10191C0078600B467B807B68DB68FB607A88FB68B1
:10192C0013401A04FB68D9437B880B401A437B682D
:10193C001A6100BF1437BD4680BC704780B586B0B5
:10194C0000AF78607B68002B01D101236CE27B68CF
:10195C001B6803F00103002B00F08780924B5B683F
:10196C0003F00C03042B0CD08F4B5B6803F00C03BF
:10197C00082B12D18C4B5B6803F48033B3F5803F9A
:10198C000BD1894B1B6803F40033002B6CD07B68A4
:10199C005B68002B68D1012346E27B685B68B3F57A
:1019AC00803F06D1804B1B687F4A43F48033136021
:1019BC002EE07B685B68002B0CD17B4B1B687A4A52
:1019CC0023F480331360784B1B68774A23F480230D
:1019DC0013601DE07B685B68B3F5A02F0CD1724BD4
:1019EC001B68714A43F4802313606F4B1B686E4A6B
:1019FC0043F4803313600BE06B4B1B686A4A23F48F
:101A0C0080331360684B1B68674A23F48023136090
:101A1C007B685B68002B13D0FFF7B6FC386108E0DD
:101A2C00FFF7B2FC02463B69D31A642B01D903239E
:101A3C00FAE15D4B1B6803F40033002BF0D014E08B
:101A4C00FFF7A2FC386108E0FFF79EFC02463B69F9
:101A5C00D31A642B01D90323E6E1534B1B6803F41F
:101A6C000033002BF0D100E000BF7B681B6803F053
:101A7C000203002B63D04C4B5B6803F00C03002B70
:101A8C000BD0494B5B6803F00C03082B1CD1464B65
:101A9C005B6803F48033002B16D1434B1B6803F0B7
:101AAC000203002B05D07B681B69012B01D001239D
:101ABC00BAE13D4B1B6823F0F8027B685B69DB00E5
:101ACC00394913430B603AE07B681B69002B20D02B
:101ADC00364B01221A60FFF757FC386108E0FFF71C
:101AEC0053FC02463B69D31A022B01D903239BE119
:101AFC002D4B1B6803F00203002BF0D02A4B1B6804
:101B0C0023F0F8027B685B69DB00274913430B6009
:101B1C0015E0264B00221A60FFF736FC386108E00E
:101B2C00FFF732FC02463B69D31A022B01D903237F
:101B3C007AE11D4B1B6803F00203002BF0D17B688C
:101B4C001B6803F00803002B3AD07B689B69002BC1
:101B5C0019D0174B01221A60FFF716FC386108E008
:101B6C00FFF712FC02463B69D31A022B01D903235F
:101B7C005AE10D4B5B6A03F00203002BF0D00120FD
:101B8C0000F0A6FA1CE00A4B00221A60FFF7FCFBDF
:101B9C0038610FE0FFF7F8FB02463B69D31A022BC2
:101BAC0008D9032340E100BF00100240000042426C
:101BBC00800442429E4B5B6A03F00203002BE9D186
:101BCC007B681B6803F00403002B00F0A680002345
:101BDC00FB75974BDB6903F08053002B0DD1944BB5
:101BEC00DB69934A43F08053D361914BDB6903F07B
:101BFC008053BB60BB680123FB758E4B1B6803F4E1
:101C0C008073002B18D18B4B1B688A4A43F480736A
:101C1C001360FFF7B9FB386108E0FFF7B5FB02462C
:101C2C003B69D31A642B01D90323FDE0814B1B685C
:101C3C0003F48073002BF0D07B68DB68012B06D19A
:101C4C007B4B1B6A7A4A43F0010313622DE07B68DD
:101C5C00DB68002B0CD1764B1B6A754A23F0010311
:101C6C001362734B1B6A724A23F0040313621CE069
:101C7C007B68DB68052B0CD16D4B1B6A6C4A43F0FF
:101C8C00040313626A4B1B6A694A43F00103136233
:101C9C000BE0674B1B6A664A23F001031362644B2B
:101CAC001B6A634A23F0040313627B68DB68002B16
:101CBC0015D0FFF769FB38610AE0FFF765FB0246B8
:101CCC003B69D31A41F28832934201D90323ABE02A
:101CDC00574B1B6A03F00203002BEED014E0FFF706
:101CEC0053FB38610AE0FFF74FFB02463B69D31AFE
:101CFC0041F28832934201D9032395E04C4B1B6A85
:101D0C0003F00203002BEED1FB7D012B05D1484BD8
:101D1C00DB69474A23F08053D3617B68DB69002B76
:101D2C0000F08180424B5B6803F00C03082B61D000
:101D3C007B68DB69022B46D13F4B00221A60FFF710
:101D4C0023FB386108E0FFF71FFB02463B69D31AFF
:101D5C00022B01D9032367E0354B1B6803F000739A
:101D6C00002BF0D17B681B6AB3F5803F08D1304B58
:101D7C005B6823F400327B689B682D4913434B60EE
:101D8C002B4B5B6823F474127B68196A7B685B6A63
:101D9C000B43274913434B60274B01221A60FFF773
:101DAC00F3FA386108E0FFF7EFFA02463B69D31A01
:101DBC00022B01D9032337E01D4B1B6803F0007382
:101DCC00002BF0D02FE01C4B00221A60FFF7DCFA3E
:101DDC00386108E0FFF7D8FA02463B69D31A022BA8
:101DEC0001D9032320E0124B1B6803F00073002B76
:101DFC00F0D118E07B68DB69012B01D1012313E0E2
:101E0C000B4B5B68FB60FB6803F480327B681B6ADE
:101E1C009A4206D1FB6803F470127B685B6A9A42A3
:101E2C0001D0012300E0002318461837BD4680BDC1
:101E3C0000100240007000406000424280B584B047
:101E4C0000AF786039607B68002B01D10123D0E0B2
:101E5C006A4B1B6803F007033A689A4210D9674B28
:101E6C001B6823F0070265493B6813430B60634B07
:101E7C001B6803F007033A689A4201D00123B8E0CB
:101E8C007B681B6803F00203002B20D07B681B6867
:101E9C0003F00403002B05D0594B5B68584A43F4FC
:101EAC00E06353607B681B6803F00803002B05D0CC
:101EBC00534B5B68524A43F460535360504B5B681E
:101ECC0023F0F0027B689B684D4913434B607B68A1
:101EDC001B6803F00103002B40D07B685B68012B6F
:101EEC0007D1474B1B6803F40033002B15D101239A
:101EFC007FE07B685B68022B07D1414B1B6803F0CA
:101F0C000073002B09D1012373E03D4B1B6803F0D8
:101F1C000203002B01D101236BE0394B5B6823F0EA
:101F2C0003027B685B68364913434B60FFF72CFA5E
:101F3C00F8600AE0FFF728FA0246FB68D31A41F270
:101F4C008832934201D9032353E02D4B5B6803F095
:101F5C000C027B685B689B009A42EBD1274B1B6899
:101F6C0003F007033A689A4210D2244B1B6823F003
:101F7C00070222493B6813430B60204B1B6803F09C
:101F8C0007033A689A4201D0012332E07B681B6850
:101F9C0003F00403002B08D0194B5B6823F4E062B8
:101FAC007B68DB68164913434B607B681B6803F046
:101FBC000803002B09D0124B5B6823F460527B683A
:101FCC001B69DB000E4913434B6000F021F80246FD
:101FDC000B4B5B681B0903F00F030A49CB5C22FA1D
:101FEC0003F3094A1360094B1B681846FFF78AF97B
:101FFC00002318461037BD4680BD00BF00200240AC
:10200C000010024060290008340000203800002035
:10201C0090B48AB000AF2A4B3C1D0FCB84E80F0064
:10202C0040F201233B800023FB610023BB610023B2
:10203C007B6200237B6100233B62224B5B68FB616C
:10204C00FB6903F00C03042B02D0082B03D02DE00A
:10205C001D4B3B622DE0FB699B0C03F00F0307F15A
:10206C002802134413F8243C7B61FB6903F480338E
:10207C00002B13D0134B5B685B0C03F0010307F1CF
:10208C002802134413F8283CBB617B690E4A02FBFF
:10209C0003F2BB69B2FBF3F37B6204E07B690B4A8E
:1020AC0002FB03F37B627B6A3B6202E0064B3B6202
:1020BC0000BF3B6A18462837BD4690BC704700BF2E
:1020CC00502900080010024000127A0000093D005F
:1020DC0080B485B000AF78600A4B1B680A4AA2FB3B
:1020EC0003235B0A7A6802FB03F3FB6000BFFB6807
:1020FC005A1EFA60002BF9D100BF00BF1437BD4641
:10210C0080BC704734000020D34D621080B582B083
:10211C0000AF78607B68002B01D1012341E07B6824
:10212C0093F83D30DBB2002B06D17B68002283F89C
:10213C003C207868FEF7ACFF7B68022283F83D20D8
:10214C007B681A687B6804331946104600F06AFAFB
:10215C007B68012283F846207B68012283F83E20AD
:10216C007B68012283F83F207B68012283F84020A2
:10217C007B68012283F841207B68012283F842208E
:10218C007B68012283F843207B68012283F844207A
:10219C007B68012283F845207B68012283F83D206F
:1021AC00002318460837BD4680BD000080B485B0BA
:1021BC0000AF78607B6893F83D30DBB2012B01D027
:1021CC00012335E07B68022283F83D207B681B6885
:1021DC00DA687B681B6842F00102DA607B681B6876
:1021EC00164A934209D07B681B68B3F1804F04D028
:1021FC007B681B68124A934211D17B681B689B68F1
:10220C0003F00703FB60FB68062B10D07B681B6890
:10221C001A687B681B6842F001021A6007E07B6851
:10222C001B681A687B681B6842F001021A60002365
:10223C0018461437BD4680BC704700BF002C0140C7
:10224C000004004080B582B000AF78607B681B68EA
:10225C001B6903F00203022B22D17B681B68DB682D
:10226C0003F00203022B1BD17B681B686FF0020288
:10227C001A617B6801221A777B681B689B6903F0E3
:10228C000303002B03D0786800F0B1F905E07868FF
:10229C0000F0A4F9786800F0B3F97B6800221A7793
:1022AC007B681B681B6903F00403042B22D17B6839
:1022BC001B68DB6803F00403042B1BD17B681B68D1
:1022CC006FF004021A617B6802221A777B681B6824
:1022DC009B6903F44073002B03D0786800F087F9F6
:1022EC0005E0786800F07AF9786800F089F97B6885
:1022FC0000221A777B681B681B6903F00803082B04
:10230C0022D17B681B68DB6803F00803082B1BD108
:10231C007B681B686FF008021A617B6804221A77CD
:10232C007B681B68DB6903F00303002B03D0786820
:10233C0000F05DF905E0786800F050F9786800F07D
:10234C005FF97B6800221A777B681B681B6903F0B6
:10235C001003102B22D17B681B68DB6803F0100381
:10236C00102B1BD17B681B686FF010021A617B6805
:10237C0008221A777B681B68DB6903F44073002B17
:10238C0003D0786800F033F905E0786800F026F99E
:10239C00786800F035F97B6800221A777B681B6837
:1023AC001B6903F00103012B0ED17B681B68DB68F2
:1023BC0003F00103012B07D17B681B686FF001024E
:1023CC001A617868FEF71AFB7B681B681B6903F0BF
:1023DC008003802B0ED17B681B68DB6803F08003C5
:1023EC00802B07D17B681B686FF080021A617868BC
:1023FC0000F067FA7B681B681B6903F04003402BF5
:10240C000ED17B681B68DB6803F04003402B07D1BF
:10241C007B681B686FF040021A61786800F0F9F86D
:10242C007B681B681B6903F02003202B0ED17B6893
:10243C001B68DB6803F02003202B07D17B681B682B
:10244C006FF020021A61786800F032FA00BF08378A
:10245C00BD4680BD80B584B000AF786039607B68C4
:10246C0093F83C30012B01D10223B3E07B680122AD
:10247C0083F83C207B68022283F83D207B681B6834
:10248C009B68FB60FB6823F07703FB60FB6823F41D
:10249C007F43FB607B681B68FA689A603B681B682B
:1024AC00B3F5005F3ED0B3F5005F00F28780B3F563
:1024BC00805F00F08580B3F5805F7FD8702B1AD0D9
:1024CC00702B7BD8602B50D0602B77D8502B3CD006
:1024DC00502B73D8402B58D0402B6FD8302B64D056
:1024EC00302B6BD8202B60D0202B67D8002B5CD0E6
:1024FC00102B5AD062E07B6818683B6899683B687F
:10250C005A683B68DB6800F05CF97B681B689B6869
:10251C00FB60FB6843F07703FB607B681B68FA6821
:10252C009A604EE07B6818683B6899683B685A680B
:10253C003B68DB6800F045F97B681B689A687B6830
:10254C001B6842F480429A603BE07B6818683B68E9
:10255C0059683B68DB681A4600F0BCF87B681B685E
:10256C005021184600F013F92BE07B6818683B6883
:10257C0059683B68DB681A4600F0DAF87B681B6820
:10258C006021184600F003F91BE07B6818683B6873
:10259C0059683B68DB681A4600F09CF87B681B683E
:1025AC004021184600F0F3F80BE07B681A683B6892
:1025BC001B681946104600F0EAF802E000BF00E084
:1025CC0000BF7B68012283F83D207B68002283F8E2
:1025DC003C20002318461037BD4680BD80B483B024
:1025EC0000AF786000BF0C37BD4680BC704780B42C
:1025FC0083B000AF786000BF0C37BD4680BC70471D
:10260C0080B483B000AF786000BF0C37BD4680BC8F
:10261C00704780B483B000AF786000BF0C37BD4604
:10262C0080BC704780B485B000AF786039607B683F
:10263C001B68FB607B68254A934207D07B68B3F12B
:10264C00804F03D07B68224A934208D1FB6823F069
:10265C007003FB603B685B68FA681343FB607B6844
:10266C001A4A934207D07B68B3F1804F03D07B6842
:10267C00174A934208D1FB6823F44073FB603B6814
:10268C00DB68FA681343FB60FB6823F080023B684D
:10269C005B691343FB607B68FA681A603B689A6855
:1026AC007B68DA623B681A687B689A627B68074AC7
:1026BC00934203D13B681A697B681A637B680122D9
:1026CC005A6100BF1437BD4680BC7047002C0140D6
:1026DC000004004080B487B000AFF860B9607A6045
:1026EC00FB681B6A7B61FB681B6A23F00102FB68B9
:1026FC001A62FB689B693B613B6923F0F0033B6109
:10270C007B681B013A6913433B617B6923F00A0325
:10271C007B617A69BB6813437B61FB683A699A6198
:10272C00FB687A691A6200BF1C37BD4680BC7047D3
:10273C0080B487B000AFF860B9607A60FB681B6A40
:10274C0023F01002FB681A62FB689B697B61FB68D3
:10275C001B6A3B617B6923F470437B617B681B03C1
:10276C007A6913437B613B6923F0A0033B61BB682F
:10277C001B013A6913433B61FB687A699A61FB68F8
:10278C003A691A6200BF1C37BD4680BC704780B4E2
:10279C0085B000AF786039607B689B68FB60FB6834
:1027AC0023F07003FB603A68FB68134343F00703A4
:1027BC00FB607B68FA689A6000BF1437BD4680BC2A
:1027CC00704780B487B000AFF860B9607A603B6046
:1027DC00FB689B687B617B6923F47F437B613B686F
:1027EC001A027B681A43BB6813437A6913437B61F3
:1027FC00FB687A699A6000BF1C37BD4680BC704785
:10280C0080B485B000AF786039607B6893F83C3059
:10281C00012B01D1022341E07B68012283F83C208B
:10282C007B68022283F83D207B681B685B68FB6039
:10283C007B681B689B68BB60FB6823F07003FB60C4
:10284C003B681B68FA681343FB607B681B68FA687B
:10285C005A607B681B68144A934209D07B681B68DA
:10286C00B3F1804F04D07B681B68104A93420CD1A3
:10287C00BB6823F08003BB603B685B68BA6813439A
:10288C00BB607B681B68BA689A607B68012283F81E
:10289C003D207B68002283F83C2000231846143727
:1028AC00BD4680BC704700BF002C014000040040B6
:1028BC0080B483B000AF786000BF0C37BD4680BCDD
:1028CC00704780B483B000AF786000BF0C37BD4652
:1028DC0080BC704770B500260C4D0D4C641BA410C9
:1028EC00A64209D100F022F800260A4D0A4C641BBE
:1028FC00A410A64205D170BD55F8043B984701368B
:10290C00EEE755F8043B98470136F2E770290008CA
:10291C007029000870290008742900080346024435
:10292C00934200D1704703F8011BF9E7F8B500BFDB
:10293C00F8BC08BC9E467047F8B500BFF8BC08BC94
:04294C009E467047EC
:1029500002030405060708090A0B0C0D0E0F1010E0
:10296000000000000000000001020304060708093F
:042970003101000829
:042974000D01000849
:10297800010000000100000001000000010000004B
:10298800010000000100000001000000010000003B
:10299800010000000100000001000000010000002B
:1029A800010000000024F4001000000001000000F5
:040000050800129944
:00000001FF
