:020000040800F2
:1000000000280020F51400084113000847130008D9
:100010004D13000853130008591300080000000096
:100020000000000000000000000000005F13000856
:100030006B1300080000000077130008831300080A
:100040003D1500083D1500083D1500083D15000848
:100050003D1500083D1500083D1500083D15000838
:100060003D1500083D1500083D1500083D15000828
:100070003D1500083D1500083D1500083D15000818
:100080003D1500083D1500083D1500083D15000808
:100090003D1500083D1500083D1500083D150008F8
:1000A0003D1500083D1500083D1500083D150008E8
:1000B000911300083D150008000000003D150008E0
:1000C0003D15000800000000000000003D1500087C
:1000D000000000003D1500083D150008000000006C
:1000E0003D1500083D1500083D1500080000000002
:1000F0000000000000000000000000000000000000
:0C01000000000000000000005FF808F1A3
:10010C0010B5054C237833B9044B13B10448AFF345
:10011C0000800123237010BD3C0000200000000073
:10012C00942B000808B5034B1BB103490348AFF3EC
:10013C00008008BD0000000040000020942B000847
:10014C0080B500AF174B1B68174A1360174B1B6821
:10015C00144A13604FF40061154801F0D5FC0346B6
:10016C001A46124B1A60104B1A680E4B1B689A42B7
:10017C0016D10C4B1A680D4B1B689A4210D10D4BC3
:10018C001A680A4B1B689A420AD0084B1B68094A2A
:10019C001360064B1B68002B02D1074B01221A601F
:1001AC0000BF80BD040000200000002008000020DB
:1001BC00000801400C0000205800002080B500AF62
:1001CC00174B1B68174A1360174B1B68144A1360B4
:1001DC004FF48051154801F097FC03461A46124B18
:1001EC001A60104B1A680E4B1B689A4216D10C4BB6
:1001FC001A680D4B1B689A4210D10D4B1A680A4BAA
:10020C001B689A420AD0084B1B68094A1360064BBC
:10021C001B68002B02D1074B01221A6000BF80BD66
:10022C0014000020100000201800002000080140DD
:10023C001C0000205C00002080B500AF174B1B6831
:10024C00174A1360174B1B68144A13604FF4005184
:10025C00154801F059FC03461A46124B1A60104B14
:10026C001A680E4B1B689A4216D10C4B1A680D4B30
:10027C001B689A4210D10D4B1A680A4B1B689A42A4
:10028C000AD0084B1B68094A1360064B1B68002BED
:10029C0002D1074B01221A6000BF80BD2400002050
:1002AC002000002028000020000801402C00002025
:1002BC006000002080B400AF2D4B4FF4FA721A602E
:1002CC002B4B1B684FF47A7292FBF3F3294A1360A1
:1002DC00294B01221A60294B05221A60284B032254
:1002EC001A60284B02221A60274B01221A60274BF6
:1002FC0002221A60214B1B68254A1360204B1B6895
:10030C00244A1360224B1B68234A82FB031292106F
:10031C00DB17D31A214A13601D4B19681E4B83FB44
:10032C0001239A10CB17D21A13469B0013445B007F
:10033C00CA1A1A4B5A60174B1B68174A82FB0312D6
:10034C009210DB17D31A154A9360124B1968124B93
:10035C0083FB01239A10CB17D21A13469B0013442C
:10036C005B00CA1A0D4BDA6000BFBD4680BC7047FB
:10037C009400002088000020900000209C000020A9
:10038C00AC00002098000020A0000020A800002055
:10039C008C000020A40000206766666678000020B0
:1003AC0080B400AF1A4B1B681A4A82FB03129210DE
:1003BC00DB17D31A184A1360154B1968154B83FBBE
:1003CC0001239A10CB17D21A13469B0013445B00DF
:1003DC00CA1A114B5A60114B1B680E4A82FB03124E
:1003EC009210DB17D31A0C4A93600C4B1968094B0B
:1003FC0083FB01239A10CB17D21A13469B0013448C
:10040C005B00CA1A044BDA6000BFBD4680BC704763
:10041C008C0000206766666678000020A40000202F
:10042C0080B400AF114B1B68114A82FB031292106F
:10043C00DB17D31A0F4A13600C4B19680C4B83FB58
:10044C0001239A10CB17D21A13469B0013445B005E
:10045C00CA1A084B5A60074B00229A60064B1B685D
:10046C00044AD36000BFBD4680BC70479C0000208E
:10047C0067666666780000209000002080B400AFAC
:10048C00114B1B68114A82FB03129210DB17D31A13
:10049C000F4A13600C4B19680C4B83FB01239A1009
:1004AC00CB17D21A13469B0013445B00CA1A084B95
:1004BC005A60074B00229A60064B1B68044AD360B3
:1004CC0000BFBD4680BC704798000020676666661A
:1004DC00780000209000002080B400AF114B1B6806
:1004EC00114A82FB03129210DB17D31A0F4A1360C6
:1004FC000C4B19680C4B83FB01239A10CB17D21AA7
:10050C0013469B0013445B00CA1A084B5A60074BF6
:10051C0000229A60064B1B68044AD36000BFBD469C
:10052C0080BC7047AC0000206766666678000020CF
:10053C009000002080B582B000AF78607B68012B02
:10054C000FD100222021134801F0F5FA012240219D
:10055C00104801F0F0FA012280210E4801F0EBFA6C
:10056C0014E07B68022B11D100224FF480710948F2
:10057C0001F0E1FA01224FF40071064801F0DBFAB8
:10058C0001224FF48061034801F0D5FA00BF08370F
:10059C00BD4680BD0008014080B582B000AF7860D8
:1005AC007B68012B0FD101222021134801F0C3FAE3
:1005BC0001224021104801F0BEFA002280210E4891
:1005CC0001F0B9FA14E07B68022B11D101224FF42F
:1005DC008071094801F0AFFA01224FF4007106480E
:1005EC0001F0A9FA00224FF48061034801F0A3FA4C
:1005FC0000BF0837BD4680BD0008014080B582B001
:10060C0000AF78607B68012B0FD1012220211348A9
:10061C0001F091FA00224021104801F08CFA0122DD
:10062C0080210E4801F087FA14E07B68022B11D16F
:10063C0001224FF48071094801F07DFA00224FF439
:10064C000071064801F077FA01224FF480610348EB
:10065C0001F071FA00BF0837BD4680BD00080140AB
:10066C0080B500AF00222021104801F064FA01226D
:10067C0040210E4801F05FFA012280210B4801F065
:10068C005AFA01224FF48071084801F054FA012201
:10069C004FF40071054801F04EFA00224FF48061CE
:1006AC00024801F048FA00BF80BD00BF00080140BD
:1006BC0080B584B000AFF860B96011461A460B469D
:1006CC00FB801346BB80FB68092B00F2C58101A29D
:1006DC0052F823F0090700085F070008B507000867
:1006EC000B08000861080008B70800080D0900088D
:1006FC0063090008B90900080F0A0008FB880022EA
:10070C001946B86801F017FABB8800221946B86878
:10071C0001F011FA3B8B00221946B86801F00BFA74
:10072C00BB8B00221946B86801F005FA3B8C0022FD
:10073C001946B86801F0FFF9BB8C00221946B8685D
:10074C0001F0F9F93B8D01221946B86801F0F3F973
:10075C0083E1FB8801221946B86801F0ECF9BB88EB
:10076C0000221946B86801F0E6F93B8B00221946C5
:10077C00B86801F0E0F9BB8B01221946B86801F0AA
:10078C00DAF93B8C01221946B86801F0D4F9BB8C1C
:10079C0001221946B86801F0CEF93B8D01221946A9
:1007AC00B86801F0C8F958E1FB8800221946B8680E
:1007BC0001F0C1F9BB8800221946B86801F0BBF9F9
:1007CC003B8B01221946B86801F0B5F9BB8B0022AE
:1007DC001946B86801F0AFF93B8C00221946B8688D
:1007EC0001F0A9F9BB8C01221946B86801F0A3F9F4
:1007FC003B8D00221946B86801F09DF92DE1FB886C
:10080C0000221946B86801F096F9BB8800221946F7
:10081C00B86801F090F93B8B00221946B86801F0DA
:10082C008AF9BB8B00221946B86801F084F93B8C1D
:10083C0001221946B86801F07EF9BB8C01221946D9
:10084C00B86801F078F93B8D00221946B86801F0C0
:10085C0072F902E1FB8801221946B86801F06BF9C4
:10086C00BB8800221946B86801F065F93B8B002261
:10087C001946B86801F05FF9BB8B01221946B868BC
:10088C0001F059F93B8C01221946B86801F053F973
:10089C00BB8C00221946B86801F04DF93B8D002243
:1008AC001946B86801F047F9D7E0FB8800221946D1
:1008BC00B86801F040F9BB8801221946B86801F00C
:1008CC003AF93B8B00221946B86801F034F9BB8B1E
:1008DC0000221946B86801F02EF93B8C012219460A
:1008EC00B86801F028F9BB8C00221946B86801F0F1
:1008FC0022F93B8D00221946B86801F01CF9ACE0D6
:10090C00FB8800221946B86801F015F9BB88012252
:10091C001946B86801F00FF93B8B00221946B868EC
:10092C0001F009F9BB8B00221946B86801F003F9F4
:10093C003B8C00221946B86801F0FDF8BB8C0022F4
:10094C001946B86801F0F7F83B8D00221946B868D3
:10095C0001F0F1F881E0FB8800221946B86801F03B
:10096C00EAF8BB8800221946B86801F0E4F83B8B22
:10097C0000221946B86801F0DEF8BB8B012219463B
:10098C00B86801F0D8F83B8C01221946B86801F020
:10099C00D2F8BB8C01221946B86801F0CCF83B8D1B
:1009AC0001221946B86801F0C6F856E0FB8800220F
:1009BC001946B86801F0BFF8BB8800221946B86820
:1009CC0001F0B9F83B8B00221946B86801F0B3F876
:1009DC00BB8B00221946B86801F0ADF83B8C0022A5
:1009EC001946B86801F0A7F8BB8C00221946B86804
:1009FC0001F0A1F83B8D00221946B86801F09BF874
:100A0C002BE0FB8800221946B86801F094F8BB88EB
:100A1C0000221946B86801F08EF83B8B002219466B
:100A2C00B86801F088F8BB8B00221946B86801F051
:100A3C0082F83B8C01221946B86801F07CF8BB8C1B
:100A4C0000221946B86801F076F83B8D0022194651
:100A5C00B86801F070F800E000BF00BF1037BD4669
:100A6C0080BD00BF80B586B006AF664B1B68012BFE
:100A7C0040F0C480644B1B68032B00F2BB8001A2C6
:100A8C0052F823F0A10A0008F90A0008510B0008DB
:100A9C00A90B0008002202215C4801F04CF801224D
:100AAC0004215A4801F047F801220821574801F067
:100ABC0042F801221021554801F03DF8524B1B68B9
:100ACC00534A52F82300402304932023039310230A
:100ADC0002930823019304230093022301224D491E
:100AEC00FFF7E6FD484B01221A6084E00122022147
:100AFC00464801F020F800220421444801F01BF87C
:100B0C0001220821414801F016F8012210213F482A
:100B1C0001F011F83C4B1B683D4A52F8230040236E
:100B2C00049320230393102302930823019304239B
:100B3C000093022301223749FFF7BAFD324B022200
:100B4C001A6058E001220221304800F0F4FF012223
:100B5C0004212E4800F0EFFF002208212B4800F062
:100B6C00EAFF01221021294800F0E5FF264B1B6803
:100B7C00274A52F823004023049320230393102385
:100B8C000293082301930423009302230122214999
:100B9C00FFF78EFD1C4B03221A602CE00122022170
:100BAC001A4800F0C8FF01220421184800F0C3FFC6
:100BBC0001220821154800F0BEFF00221021134825
:100BCC0000F0B9FF104B1B68114A52F82300402368
:100BDC0004932023039310230293082301930423EB
:100BEC000093022301220B49FFF762FD064B002202
:100BFC001A6000E000BF642000F00AFC00BFBD4694
:100C0C0080BD00BF7000002064000020000801407F
:100C1C0078000020000C014080B500AF012220219B
:100C2C00104800F088FF012240210E4800F083FF9D
:100C3C00012280210B4800F07EFF01224FF48071CD
:100C4C00084800F078FF01224FF40071054800F0CD
:100C5C0072FF01224FF48061024800F06CFF00BF6C
:100C6C0080BD00BF0008014080B500AF20210E48B8
:100C7C0000F079FF4FF480710B4800F074FF802175
:100C8C00094800F070FF4FF48061074800F06BFFDB
:100C9C004021054800F067FF4FF40071024800F056
:100CAC0062FF00BF80BD00BF0008014080B500AFEF
:100CBC0000F040FC00F052F800F0D8F800F08AF890
:100CCC00214801F0A1FBFFF7CBFCFFF7F3FA6420FE
:100CDC0000F09EFB1D4B1B68184600F063FB4FF4A5
:100CEC00FA7000F0CBFB1A4B1B68012B06D1FFF7F7
:100CFC0093FF00F06BFA164B00221A60154B1B6821
:100D0C00012B04D100F08CFA124B00221A60124B0A
:100D1C001B68012B02D100F025F9E4E70E4B1B6890
:100D2C00022B02D100F0CEF9DDE70B4B1B68032B35
:100D3C0002D100F01FFAD6E7074B1B68042BD2D167
:100D4C0000F0ECF9CFE700BFB800002094000020C1
:100D5C0058000020600000209000002080B590B06A
:100D6C0000AF07F1180328220021184601F004FFF8
:100D7C003B1D00221A605A609A60DA601A610223E5
:100D8C00BB610123BB621023FB6200237B6307F171
:100D9C001803184600F000FF0346002B01D000F0AA
:100DAC00DBF80F237B600023BB600023FB60002378
:100DBC003B6100237B613B1D0021184601F06CF95F
:100DCC000346002B01D000F0C7F800BF4037BD46EA
:100DDC0080BD000080B586B000AF07F1080300228B
:100DEC001A605A609A60DA603B4600221A605A60B8
:100DFC001D4B4FF080421A601B4B41F63F725A60FC
:100E0C00194B00229A60184B0922DA60164B00220B
:100E1C001A61154B00229A61134801F0A5FA03469A
:100E2C00002B01D000F098F84FF48053BB6007F111
:100E3C00080319460C4801F03BFC0346002B01D07B
:100E4C0000F08AF800233B6000237B603B46194688
:100E5C00054801F003FE0346002B01D000F07CF89E
:100E6C0000BF1837BD4680BDB800002080B586B0E5
:100E7C0000AF07F1080300221A605A609A60DA602A
:100E8C00284B9B69274A43F004039361254B9B69CC
:100E9C0003F004037B607B68224B9B69214A43F07F
:100EAC00080393611F4B9B6903F008033B603B688D
:100EBC00002240F2FE711C4800F03DFE00227F2112
:100ECC001A4800F038FE40F2FE73BB600123FB6051
:100EDC0000233B6102237B6107F10803194612488A
:100EEC0000F098FC7F23BB600123FB6000233B6177
:100EFC0002237B6107F1080319460C4800F08AFCB9
:100F0C004FF46053BB600023FB6001233B6107F18E
:100F1C0008031946044800F07DFC00BF1837BD4695
:100F2C0080BD00BF0010024000080140000C0140D1
:100F3C0080B582B000AF786000F050FA00F084FA0F
:100F4C0000F0B8FAFFF7FCF8FFF738F9FFF774F97F
:100F5C0000BF0837BD4680BD80B400AF72B600BF7D
:100F6C00FEE7000080B500AFFFF71AFAFFF77AFD35
:100F7C004A4B1B68012B23D1494B1B68002B1ADDF4
:100F8C00474B1B68013B464A1360454B1B68002BC3
:100F9C0011D1444B1B68013B424A1360424B1B6806
:100FAC00013B414A1360414B1B684FF47A7292FB30
:100FBC00F3F33B4A13603D4B1B68184600F0F2F903
:100FCC00384B1B68002B0DD1394B1B68012B09D1F9
:100FDC000120FFF7E1FA374B1B68324A1360344BA0
:100FEC0002221A602F4B1B68002B0DD1304B1B6853
:100FFC00022B09D10120FFF701FB2F4B1B68294A5B
:10100C0013602B4B03221A60264B1B68002B0DD14F
:10101C00274B1B68032B09D10120FFF78BFA274BB9
:10102C001B68204A1360224B01221A601E4B1B685E
:10103C00002B0DD1224B1B68012B09D10220FFF78D
:10104C00ABFA1C4B1B68184A13601D4B02221A602A
:10105C00154B1B68002B0DD1194B1B68022B09D1AA
:10106C000220FFF7CBFA144B1B680F4A1360144B8A
:10107C0003221A600C4B1B68002B0DD1104B1B6804
:10108C00032B09D10220FFF755FA0C4B1B68064ABB
:10109C0013600B4B01221A6000BF80BD680000205A
:1010AC00880000208C000020A40000209400002068
:1010BC00A0000020AC000020980000209C00002024
:1010CC00A800002080B500AFFFF7AAF9FFF7CAFC13
:1010DC000F4B1B68012B05D1FFF7C6FD4FF4FA70BF
:1010EC0000F0CCF90B4B1B68012B0ED10A4B1B6883
:1010FC000133094A1360084B1B68642B02D1064B61
:10110C0005221A60034B00221A6000BF80BD00BF8D
:10111C00B40000205C0000209C00002080B500AFD3
:10112C00FFF7DAF9FFF79EFC0F4B1B68012B05D17B
:10113C00FFF79AFD4FF4FA7000F0A0F90B4B1B6807
:10114C00012B0ED10A4B1B680133094A1360084B63
:10115C001B68642B02D1064B03221A60034B00223E
:10116C001A6000BF80BD00BFB40000205C000020EE
:10117C00AC00002080B500AFFFF780F9FFF772FCE0
:10118C000F4B1B68012B05D1FFF76EFD4FF4FA7066
:10119C0000F074F90B4B1B68012B0ED10A4B1B682A
:1011AC000133094A1360084B1B68642B02D1064BB0
:1011BC0002221A60034B00221A6000BF80BD00BFE0
:1011CC00B40000205C0000209800002080B400AF28
:1011DC00124B1B68013B032B1AD801A252F823F0C7
:1011EC00FD110008051200080D1200081512000868
:1011FC000A4B02221A600CE0084B03221A6008E02A
:10120C00064B04221A6004E0044B02221A6000E030
:10121C0000BF00BFBD4680BC704700BF90000020DF
:10122C0080B500AF104B01221A60104B01221A60DE
:10123C000F4B02221A600F4B1B680F4A13600F4BA7
:10124C001B680F4A1360FFF70BFA642000F0E0F8FC
:10125C000C4B1B68184600F0A5F84FF4FA7000F020
:10126C000DF900BF80BD00BF90000020A000002041
:10127C00A80000209C0000208C000020AC00002066
:10128C00A40000209400002080B485B000AF154B62
:10129C009B69144A43F001039361124B9B6903F061
:1012AC000103BB60BB680F4BDB690E4A43F08053F4
:1012BC00D3610C4BDB6903F080537B607B680A4B7A
:1012CC005B68FB60FB6823F0E063FB60FB6843F04A
:1012DC008063FB60044AFB68536000BF1437BD4653
:1012EC0080BC7047001002400000014080B584B003
:1012FC0000AF78607B681B68B3F1804F13D10C4B47
:10130C00DB690B4A43F00103D361094BDB6903F042
:10131C000103FB60FB68002200211C2000F043FA53
:10132C001C2000F05CFA00BF1037BD4680BD00BF2A
:10133C000010024080B400AFFEE780B400AFFEE7BF
:10134C0080B400AFFEE780B400AFFEE780B400AF1E
:10135C00FEE780B400AF00BFBD4680BC704780B4D0
:10136C0000AF00BFBD4680BC704780B400AF00BF6B
:10137C00BD4680BC704780B500AF00F021F900BFBE
:10138C0080BD000080B500AF024801F089F800BFB5
:10139C0080BD00BFB800002080B400AF00BFBD46C8
:1013AC0080BC704780B483B000AF78607B68084A1B
:1013BC0082FB03129210DB17D31A064A1360064BFA
:1013CC0000221A6000BF0C37BD4680BC704700BFBE
:1013DC00676666666C0000206800002080B400AF71
:1013EC00094B1B68002B0BDD074B1B68013B064AA6
:1013FC001360054B1B68002B02D1044B01221A60B1
:10140C0000BFBD4680BC70476C0000206800002007
:10141C0080B483B000AF78607B68084A82FB03120B
:10142C009210DB17D31A064A1360064B00221A607F
:10143C0000BF0C37BD4680BC704700BF6766666650
:10144C00740000207000002080B400AF094B1B68B2
:10145C00002B0BDD074B1B68013B064A1360054B49
:10146C001B68002B02D1044B01221A6000BFBD4641
:10147C0080BC7047740000207000002080B483B0E2
:10148C0000AF78607B68084A82FB03129210DB176E
:10149C00D31A064A1360064B00221A6000BF0C37A1
:1014AC00BD4680BC704700BF67666666B000002012
:1014BC00B400002080B400AF094B1B68002B0BDD7F
:1014CC00074B1B68013B064A1360054B1B68002B3E
:1014DC0002D1044B01221A6000BFBD4680BC70478C
:1014EC00B0000020B40000200C480D490D4A002328
:1014FC0002E0D458C4500433C4188C42F9D30A4ABD
:10150C000A4C002301E013600432A242FBD3FFF724
:10151C0043FF01F00DFBFFF7C9FB704700000020F3
:10152C003C000020D42B00083C00002004010020CB
:10153C00FEE7000080B500AF084B1B68074A43F07C
:10154C0010031360032000F023F90F2000F008F8BB
:10155C00FFF79AFE0023184680BD00BF0020024012
:10156C0080B582B000AF7860124B1A68124B1B78B2
:10157C0019464FF47A73B3FBF1F3B2FBF3F318464D
:10158C0000F03BF90346002B01D001230EE07B68F1
:10159C000F2B0AD8002279684FF0FF3000F003F9C6
:1015AC00064A7B681360002300E0012318460837C5
:1015BC00BD4680BD300000203800002034000020E3
:1015CC0080B400AF054B1B781A46054B1B681344BF
:1015DC00034A136000BFBD4680BC70473800002032
:1015EC000001002080B400AF024B1B681846BD46BA
:1015FC0080BC70470001002080B485B000AF7860DB
:10160C007B6803F00703FB600C4BDB68BB60BA68BC
:10161C004FF6FF031340BB60FB681A02BB68134311
:10162C0043F0BF6343F40033BB60044ABB68D36030
:10163C0000BF1437BD4680BC704700BF00ED00E012
:10164C0080B400AF044BDB681B0A03F00703184699
:10165C00BD4680BC704700BF00ED00E080B483B095
:10166C0000AF0346FB7197F90730002B0BDBFB79BE
:10167C0003F01F02064997F907305B09012000FAB5
:10168C0002F241F8232000BF0C37BD4680BC7047E6
:10169C0000E100E080B483B000AF03463960FB7119
:1016AC0097F90730002B0ADB3B68DAB20C4997F943
:1016BC0007301201D2B20B4483F800230AE03B68D6
:1016CC00DAB20849FB7903F00F03043B1201D2B2E2
:1016DC000B441A7600BF0C37BD4680BC704700BF68
:1016EC0000E100E000ED00E080B489B000AFF860EC
:1016FC00B9607A60FB6803F00703FB61FB69C3F117
:10170C000703042B28BF0423BB61FB690433062B9E
:10171C0002D9FB69033B00E000237B614FF0FF32F1
:10172C00BB6902FA03F3DA43BB681A407B699A403F
:10173C004FF0FF317B6901FA03F3D9437B680B400F
:10174C00134318462437BD4680BC704780B582B021
:10175C0000AF78607B68013BB3F1807F01D301233C
:10176C000FE00A4A7B68013B53600F214FF0FF30BA
:10177C00FFF790FF054B00229A60044B07221A607A
:10178C00002318460837BD4680BD00BF10E000E0BE
:10179C0080B582B000AF78607868FFF72DFF00BF8E
:1017AC000837BD4680BD80B586B000AF0346B96032
:1017BC007A60FB7300237B61FFF742FF78617A68E4
:1017CC00B9687869FFF790FF024697F90F30114618
:1017DC001846FFF75FFF00BF1837BD4680BD80B5C8
:1017EC0082B000AF0346FB7197F907301846FFF73C
:1017FC0035FF00BF0837BD4680BD80B582B000AF55
:10180C0078607868FFF7A2FF034618460837BD4694
:10181C0080BD000080B48BB000AF786039600023CD
:10182C007B6200233B6248E101227B6A02FA03F3EC
:10183C00FB613B681B68FA691340BB61BA69FB69C1
:10184C009A4240F037813B685B68A34A93425ED072
:10185C00A14A934275D8A14A934258D09F4A9342C9
:10186C006FD89F4A934252D09D4A934269D89D4A61
:10187C0093424CD09B4A934263D89B4A934246D0A6
:10188C00994A93425DD8122B2AD8122B59D801A20F
:10189C0052F823F01B190008F51800080719000866
:1018AC00491900084F1900084F1900084F19000872
:1018BC004F1900084F1900084F1900084F1900085C
:1018CC004F1900084F1900084F1900084F1900084C
:1018DC004F1900084F190008FD18000811190008CD
:1018EC00824A934213D02CE03B68DB683B6229E0D0
:1018FC003B68DB6804333B6224E03B68DB680833FD
:10190C003B621FE03B68DB680C333B621AE03B68D0
:10191C009B68002B02D104233B6213E03B689B685D
:10192C00012B05D108233B627B68FA691A6109E037
:10193C0008233B627B68FA695A6103E000233B622F
:10194C0000E000BFBB69FF2B01D87B6801E07B681E
:10195C0004337B61BB69FF2B02D87B6A9B0002E0DE
:10196C007B6A083B9B003B617B691A680F213B69D2
:10197C0001FA03F3DB431A40396A3B6901FA03F3BA
:10198C001A437B691A603B685B6803F08053002B39
:10199C0000F09080564B9B69554A43F001039361CC
:1019AC00534B9B6903F00103BB60BB68514A7B6AD4
:1019BC009B08023352F82330FB607B6A03F003036D
:1019CC009B000F2202FA03F3DB43FA681340FB601F
:1019DC007B68494A93420DD07B68484A934207D0B2
:1019EC007B68474A934201D1022304E0032302E0BF
:1019FC00012300E000237A6A02F003029200934074
:101A0C00FA681343FB603B497B6A9B080233FA6814
:101A1C0041F823203B685B6803F48033002B06D02D
:101A2C00384B1A683749BB6913430B6006E0354BDA
:101A3C001A68BB69DB43334913400B603B685B6836
:101A4C0003F40033002B06D02E4B5A682D49BB698A
:101A5C0013434B6006E02B4B5A68BB69DB432949A7
:101A6C0013404B603B685B6803F48013002B06D07B
:101A7C00244B9A682349BB6913438B6006E0214BC6
:101A8C009A68BB69DB431F4913408B603B685B68FA
:101A9C0003F40013002B06D01A4BDA681949BB6902
:101AAC001343CB6006E0174BDA68BB69DB4315497F
:101ABC001340CB607B6A01337B623B681A687B6A9C
:101ACC0022FA03F3002B7FF4AFAE00BF00BF2C371C
:101ADC00BD4680BC704700BF0000321000003110C2
:101AEC000000221000002110000012100000111044
:101AFC00001002400000014000080140000C0140B1
:101B0C00001001400004014080B485B000AF786043
:101B1C000B467B807B689A687B881340002B02D035
:101B2C000123FB7301E00023FB73FB7B1846143786
:101B3C00BD4680BC704780B483B000AF78600B4664
:101B4C007B8013467B707B78002B03D07A887B6874
:101B5C001A6103E07B881A047B681A6100BF0C379A
:101B6C00BD4680BC704780B485B000AF78600B4632
:101B7C007B807B68DB68FB607A88FB6813401A0407
:101B8C00FB68D9437B880B401A437B681A6100BF02
:101B9C001437BD4680BC704780B586B000AF786006
:101BAC007B68002B01D101236CE27B681B6803F07E
:101BBC000103002B00F08780924B5B6803F00C0351
:101BCC00042B0CD08F4B5B6803F00C03082B12D149
:101BDC008C4B5B6803F48033B3F5803F0BD1894B9E
:101BEC001B6803F40033002B6CD07B685B68002B04
:101BFC0068D1012346E27B685B68B3F5803F06D170
:101C0C00804B1B687F4A43F4803313602EE07B6863
:101C1C005B68002B0CD17B4B1B687A4A23F4803316
:101C2C001360784B1B68774A23F4802313601DE004
:101C3C007B685B68B3F5A02F0CD1724B1B68714AA3
:101C4C0043F4802313606F4B1B686E4A43F480335C
:101C5C0013600BE06B4B1B686A4A23F480331360F0
:101C6C00684B1B68674A23F4802313607B685B68AE
:101C7C00002B13D0FFF7B6FC386108E0FFF7B2FC7D
:101C8C0002463B69D31A642B01D90323FAE15D4B5D
:101C9C001B6803F40033002BF0D014E0FFF7A2FC18
:101CAC00386108E0FFF79EFC02463B69D31A642BAF
:101CBC0001D90323E6E1534B1B6803F40033002BDB
:101CCC00F0D100E000BF7B681B6803F00203002B1F
:101CDC0063D04C4B5B6803F00C03002B0BD0494BCF
:101CEC005B6803F00C03082B1CD1464B5B6803F4B8
:101CFC008033002B16D1434B1B6803F00203002BDF
:101D0C0005D07B681B69012B01D00123BAE13D4B47
:101D1C001B6823F0F8027B685B69DB0039491343CD
:101D2C000B603AE07B681B69002B20D0364B0122FC
:101D3C001A60FFF757FC386108E0FFF753FC0246C6
:101D4C003B69D31A022B01D903239BE12D4B1B6852
:101D5C0003F00203002BF0D02A4B1B6823F0F8028F
:101D6C007B685B69DB00274913430B6015E0264B4E
:101D7C0000221A60FFF736FC386108E0FFF732FCEE
:101D8C0002463B69D31A022B01D903237AE11D4B7E
:101D9C001B6803F00203002BF0D17B681B6803F077
:101DAC000803002B3AD07B689B69002B19D0174B8A
:101DBC0001221A60FFF716FC386108E0FFF712FCED
:101DCC0002463B69D31A022B01D903235AE10D4B6E
:101DDC005B6A03F00203002BF0D0012000F0A6FA9E
:101DEC001CE00A4B00221A60FFF7FCFB38610FE085
:101DFC00FFF7F8FB02463B69D31A022B08D90323E1
:101E0C0040E100BF00100240000042428004424208
:101E1C009E4B5B6A03F00203002BE9D17B681B68C5
:101E2C0003F00403002B00F0A6800023FB75974BF6
:101E3C00DB6903F08053002B0DD1944BDB69934A83
:101E4C0043F08053D361914BDB6903F08053BB604B
:101E5C00BB680123FB758E4B1B6803F48073002B4E
:101E6C0018D18B4B1B688A4A43F480731360FFF7BD
:101E7C00B9FB386108E0FFF7B5FB02463B69D31AA2
:101E8C00642B01D90323FDE0814B1B6803F48073A1
:101E9C00002BF0D07B68DB68012B06D17B4B1B6AD7
:101EAC007A4A43F0010313622DE07B68DB68002B58
:101EBC000CD1764B1B6A754A23F001031362734BEA
:101ECC001B6A724A23F0040313621CE07B68DB6814
:101EDC00052B0CD16D4B1B6A6C4A43F00403136247
:101EEC006A4B1B6A694A43F0010313620BE0674BB0
:101EFC001B6A664A23F001031362644B1B6A634A34
:101F0C0023F0040313627B68DB68002B15D0FFF70A
:101F1C0069FB38610AE0FFF765FB02463B69D31A9F
:101F2C0041F28832934201D90323ABE0574B1B6A31
:101F3C0003F00203002BEED014E0FFF753FB3861E3
:101F4C000AE0FFF74FFB02463B69D31A41F2883295
:101F5C00934201D9032395E04C4B1B6A03F0020317
:101F6C00002BEED1FB7D012B05D1484BDB69474A99
:101F7C0023F08053D3617B68DB69002B00F08180F8
:101F8C00424B5B6803F00C03082B61D07B68DB6968
:101F9C00022B46D13F4B00221A60FFF723FB38611E
:101FAC0008E0FFF71FFB02463B69D31A022B01D94D
:101FBC00032367E0354B1B6803F00073002BF0D153
:101FCC007B681B6AB3F5803F08D1304B5B6823F408
:101FDC0000327B689B682D4913434B602B4B5B682D
:101FEC0023F474127B68196A7B685B6A0B4327497C
:101FFC0013434B60274B01221A60FFF7F3FA386149
:10200C0008E0FFF7EFFA02463B69D31A022B01D91D
:10201C00032337E01D4B1B6803F00073002BF0D03B
:10202C002FE01C4B00221A60FFF7DCFA386108E045
:10203C00FFF7D8FA02463B69D31A022B01D90323C6
:10204C0020E0124B1B6803F00073002BF0D118E05A
:10205C007B68DB69012B01D1012313E00B4B5B681F
:10206C00FB60FB6803F480327B681B6A9A4206D1E2
:10207C00FB6803F470127B685B6A9A4201D00123FF
:10208C0000E0002318461837BD4680BD0010024002
:10209C00007000406000424280B584B000AF7860B0
:1020AC0039607B68002B01D10123D0E06A4B1B689F
:1020BC0003F007033A689A4210D9674B1B6823F068
:1020CC00070265493B6813430B60634B1B6803F0C5
:1020DC0007033A689A4201D00123B8E07B681B6879
:1020EC0003F00203002B20D07B681B6803F0040371
:1020FC00002B05D0594B5B68584A43F4E06353609E
:10210C007B681B6803F00803002B05D0534B5B68FE
:10211C00524A43F460535360504B5B6823F0F00217
:10212C007B689B684D4913434B607B681B6803F0CD
:10213C000103002B40D07B685B68012B07D1474B18
:10214C001B6803F40033002B15D101237FE07B685F
:10215C005B68022B07D1414B1B6803F00073002B0B
:10216C0009D1012373E03D4B1B6803F00203002BE4
:10217C0001D101236BE0394B5B6823F003027B68D0
:10218C005B68364913434B60FFF72CFAF8600AE0A2
:10219C00FFF728FA0246FB68D31A41F288329342C1
:1021AC0001D9032353E02D4B5B6803F00C027B68D1
:1021BC005B689B009A42EBD1274B1B6803F007032B
:1021CC003A689A4210D2244B1B6823F0070222492A
:1021DC003B6813430B60204B1B6803F007033A6802
:1021EC009A4201D0012332E07B681B6803F00403A0
:1021FC00002B08D0194B5B6823F4E0627B68DB682A
:10220C00164913434B607B681B6803F00803002BD3
:10221C0009D0124B5B6823F460527B681B69DB00AE
:10222C000E4913434B6000F021F802460B4B5B68E0
:10223C001B0903F00F030A49CB5C22FA03F3094A8A
:10224C001360094B1B681846FFF78AF900231846E0
:10225C001037BD4680BD00BF002002400010024078
:10226C00BC2B0008300000203400002090B48AB051
:10227C0000AF2A4B3C1D0FCB84E80F0040F201232A
:10228C003B800023FB610023BB6100237B620023A6
:10229C007B6100233B62224B5B68FB61FB6903F0B3
:1022AC000C03042B02D0082B03D02DE01D4B3B62FA
:1022BC002DE0FB699B0C03F00F0307F1280213447C
:1022CC0013F8243C7B61FB6903F48033002B13D09F
:1022DC00134B5B685B0C03F0010307F128021344FA
:1022EC0013F8283CBB617B690E4A02FB03F2BB6905
:1022FC00B2FBF3F37B6204E07B690B4A02FB03F352
:10230C007B627B6A3B6202E0064B3B6200BF3B6A2E
:10231C0018462837BD4690BC704700BFAC2B000850
:10232C000010024000127A0000093D0080B485B014
:10233C0000AF78600A4B1B680A4AA2FB03235B0AB6
:10234C007A6802FB03F3FB6000BFFB685A1EFA605D
:10235C00002BF9D100BF00BF1437BD4680BC7047BD
:10236C0030000020D34D621080B582B000AF786091
:10237C007B68002B01D1012341E07B6893F83D3051
:10238C00DBB2002B06D17B68002283F83C207868F6
:10239C00FEF7ACFF7B68022283F83D207B681A684D
:1023AC007B6804331946104600F06AFA7B680122F8
:1023BC0083F846207B68012283F83E207B6801224B
:1023CC0083F83F207B68012283F840207B68012240
:1023DC0083F841207B68012283F842207B6801222C
:1023EC0083F843207B68012283F844207B68012218
:1023FC0083F845207B68012283F83D200023184692
:10240C000837BD4680BD000080B485B000AF786051
:10241C007B6893F83D30DBB2012B01D0012335E012
:10242C007B68022283F83D207B681B68DA687B6836
:10243C001B6842F00102DA607B681B68164A934203
:10244C0009D07B681B68B3F1804F04D07B681B6894
:10245C00124A934211D17B681B689B6803F00703F7
:10246C00FB60FB68062B10D07B681B681A687B68C6
:10247C001B6842F001021A6007E07B681B681A684F
:10248C007B681B6842F001021A600023184614375F
:10249C00BD4680BC704700BF002C014000040040CA
:1024AC0080B582B000AF78607B681B681B6903F055
:1024BC000203022B22D17B681B68DB6803F002034A
:1024CC00022B1BD17B681B686FF002021A617B68C0
:1024DC0001221A777B681B689B6903F00303002BAE
:1024EC0003D0786800F0B1F905E0786800F0A4F941
:1024FC00786800F0B3F97B6800221A777B681B6858
:10250C001B6903F00403042B22D17B681B68DB6876
:10251C0003F00403042B1BD17B681B686FF00402CF
:10252C001A617B6802221A777B681B689B6903F42B
:10253C004073002B03D0786800F087F905E07868C9
:10254C0000F07AF9786800F089F97B6800221A7734
:10255C007B681B681B6903F00803082B22D17B687E
:10256C001B68DB6803F00803082B1BD17B681B6816
:10257C006FF008021A617B6804221A777B681B686B
:10258C00DB6903F00303002B03D0786800F05DF9DE
:10259C0005E0786800F050F9786800F05FF97B6826
:1025AC0000221A777B681B681B6903F01003102B41
:1025BC0022D17B681B68DB6803F01003102B1BD146
:1025CC007B681B686FF010021A617B6808221A770F
:1025DC007B681B68DB6903F44073002B03D07868BD
:1025EC0000F033F905E0786800F026F9786800F01F
:1025FC0035F97B6800221A777B681B681B6903F02E
:10260C000103012B0ED17B681B68DB6803F001030F
:10261C00012B07D17B681B686FF001021A61786887
:10262C00FEF786FC7B681B681B6903F08003802B1C
:10263C000ED17B681B68DB6803F08003802B07D10D
:10264C007B681B686FF080021A61786800F067FA8B
:10265C007B681B681B6903F04003402B0ED17B6821
:10266C001B68DB6803F04003402B07D17B681B68B9
:10267C006FF040021A61786800F0F9F87B681B680B
:10268C001B6903F02003202B0ED17B681B68DB68D1
:10269C0003F02003202B07D17B681B686FF020020E
:1026AC001A61786800F032FA00BF0837BD4680BD69
:1026BC0080B584B000AF786039607B6893F83C30AB
:1026CC00012B01D10223B3E07B68012283F83C206B
:1026DC007B68022283F83D207B681B689B68FB604B
:1026EC00FB6823F07703FB60FB6823F47F43FB60FC
:1026FC007B681B68FA689A603B681B68B3F5005FDF
:10270C003ED0B3F5005F00F28780B3F5805F00F038
:10271C008580B3F5805F7FD8702B1AD0702B7BD857
:10272C00602B50D0602B77D8502B3CD0502B73D8CB
:10273C00402B58D0402B6FD8302B64D0302B6BD81B
:10274C00202B60D0202B67D8002B5CD0102B5AD0BC
:10275C0062E07B6818683B6899683B685A683B681C
:10276C00DB6800F05CF97B681B689B68FB60FB68AE
:10277C0043F07703FB607B681B68FA689A604EE055
:10278C007B6818683B6899683B685A683B68DB68EB
:10279C0000F045F97B681B689A687B681B6842F4FB
:1027AC0080429A603BE07B6818683B6859683B68DC
:1027BC00DB681A4600F0BCF87B681B685021184691
:1027CC0000F013F92BE07B6818683B6859683B688C
:1027DC00DB681A4600F0DAF87B681B686021184643
:1027EC0000F003F91BE07B6818683B6859683B688C
:1027FC00DB681A4600F09CF87B681B684021184681
:10280C0000F0F3F80BE07B681A683B681B6819460C
:10281C00104600F0EAF802E000BF00E000BF7B6861
:10282C00012283F83D207B68002283F83C200023A2
:10283C0018461037BD4680BD80B483B000AF7860B9
:10284C0000BF0C37BD4680BC704780B483B000AF6E
:10285C00786000BF0C37BD4680BC704780B483B035
:10286C0000AF786000BF0C37BD4680BC704780B4A9
:10287C0083B000AF786000BF0C37BD4680BC70479A
:10288C0080B485B000AF786039607B681B68FB60F2
:10289C007B68254A934207D07B68B3F1804F03D005
:1028AC007B68224A934208D1FB6823F07003FB60DB
:1028BC003B685B68FA681343FB607B681A4A934277
:1028CC0007D07B68B3F1804F03D07B68174A9342E3
:1028DC0008D1FB6823F44073FB603B68DB68FA6843
:1028EC001343FB60FB6823F080023B685B69134376
:1028FC00FB607B68FA681A603B689A687B68DA62EE
:10290C003B681A687B689A627B68074A934203D1DA
:10291C003B681A697B681A637B6801225A6100BFA5
:10292C001437BD4680BC7047002C014000040040A9
:10293C0080B487B000AFF860B9607A60FB681B6A3E
:10294C007B61FB681B6A23F00102FB681A62FB685F
:10295C009B693B613B6923F0F0033B617B681B0186
:10296C003A6913433B617B6923F00A037B617A6903
:10297C00BB6813437B61FB683A699A61FB687A69AF
:10298C001A6200BF1C37BD4680BC704780B487B04C
:10299C0000AFF860B9607A60FB681B6A23F0100224
:1029AC00FB681A62FB689B697B61FB681B6A3B6175
:1029BC007B6923F470437B617B681B037A69134347
:1029CC007B613B6923F0A0033B61BB681B013A6947
:1029DC0013433B61FB687A699A61FB683A691A6236
:1029EC0000BF1C37BD4680BC704780B485B000AFBB
:1029FC00786039607B689B68FB60FB6823F0700330
:102A0C00FB603A68FB68134343F00703FB607B6889
:102A1C00FA689A6000BF1437BD4680BC704780B41A
:102A2C0087B000AFF860B9607A603B60FB689B6868
:102A3C007B617B6923F47F437B613B681A027B6873
:102A4C001A43BB6813437A6913437B61FB687A6949
:102A5C009A6000BF1C37BD4680BC704780B485B0FF
:102A6C0000AF786039607B6893F83C30012B01D162
:102A7C00022341E07B68012283F83C207B68022220
:102A8C0083F83D207B681B685B68FB607B681B6878
:102A9C009B68BB60FB6823F07003FB603B681B68A2
:102AAC00FA681343FB607B681B68FA685A607B68A2
:102ABC001B68144A934209D07B681B68B3F1804FA2
:102ACC0004D07B681B68104A93420CD1BB6823F07E
:102ADC008003BB603B685B68BA681343BB607B6870
:102AEC001B68BA689A607B68012283F83D207B687A
:102AFC00002283F83C20002318461437BD4680BCC6
:102B0C00704700BF002C01400004004080B483B02B
:102B1C0000AF786000BF0C37BD4680BC704780B4F6
:102B2C0083B000AF786000BF0C37BD4680BC7047E7
:102B3C0070B500260C4D0D4C641BA410A64209D197
:102B4C0000F022F800260A4D0A4C641BA410A64281
:102B5C0005D170BD55F8043B98470136EEE755F8A2
:102B6C00043B98470136F2E7CC2B0008CC2B00082D
:102B7C00CC2B0008D02B000803460244934200D112
:102B8C00704703F8011BF9E7F8B500BFF8BC08BCA7
:102B9C009E467047F8B500BFF8BC08BC9E4670470F
:102BAC0002030405060708090A0B0C0D0E0F101082
:102BBC0000000000000000000102030406070809E1
:042BCC0031010008CB
:042BD0000D010008EB
:102BD40001000000010000000100000001000000ED
:102BE40001000000010000000100000001000000DD
:102BF40001000000010000000100000001000000CD
:0C2C04000024F40010000000010000009B
:04000005080014F5E6
:00000001FF
